:020000040800F2
:10000000380B00203D030008C1360008C52F00084A
:10001000BD3600084D1600080D3B0008000000002A
:10002000000000000000000000000000353700085C
:100030005116000800000000313700088D37000815
:100040005703000857030008570300085703000828
:100050005703000857030008551600085703000807
:100060005703000857030008570300085703000808
:1000700057030008570300085703000857030008F8
:1000800057030008570300085703000857030008E8
:1000900057030008570300085703000857030008D8
:1000A00057030008570300085703000857030008C8
:1000B00057030008570300085703000857030008B8
:1000C00057030008570300085703000857030008A8
:1000D0005703000857030008570300085703000898
:1000E0005703000857030008570300085703000888
:1000F0005703000857030008570300085703000878
:100100005703000857030008570300085703000867
:100110005703000857030008570300085703000857
:100120005703000857030008570300085703000847
:1001300057030008000000000000000057030008FB
:100140005703000857030008570300085703000827
:100150005703000857030008570300085703000817
:100160005703000857030008570300085703000807
:100170005703000857030008570300080000000059
:10018000000000005703000800000000000000000D
:10019000570300080000000000000000570300089B
:1001A00000000000000000000000000057030008ED
:1001B00057030008570300085703000857030008B7
:1001C0005703000800F002F800F0A8F814A696E81B
:1001D000000CB244B344DA4501D100F09FF8BAE80C
:1001E0000F000FA696E83000A5EB040504EB060708
:1001F000AAEB0704A7F101074FEA15154FEA3414DB
:10020000A4F10104AC4201D300F088F813F0010F0F
:1002100018BFFB1A43F0010300F001F8DBE71847B1
:10022000E460000004610000103A24BF78C878C17F
:10023000FAD8520724BF30C830C144BF04680C60EC
:1002400070470000704700000023002400250026AE
:10025000103A28BF78C1FBD8520728BF30C148BF29
:100260000B6070476E2900F00782702900F0498307
:10027000662904F01B85652904F01885672904F0B8
:100280001585612904F0148503681B0A28BF41F015
:100290008001692900F0B481642900F0B1817529D9
:1002A00000F0AE816F2900F0D782782900F0158325
:1002B000E92900F07182E42900F06E82F52900F04E
:1002C0006B82EF2900F0D482F82900F014830368D0
:1002D000DB0928BF41F08001632901F037807329D1
:1002E00001F03C80E32901F04780F32901F04C80C4
:1002F000002070471FB504F0CCFC01F09FF804000B
:100300000020002104F038FC401C60600020002127
:1003100004F01CFCE0601FBD10B510BD01F060F8DA
:100320001146FFF7E7FF03F053FC01F03DF903B47A
:10033000FFF7F2FF03BC01F081F900000948804794
:1003400009480047FEE7FEE7FEE7FEE7FEE7FEE7B7
:10035000FEE7FEE7FEE7FEE704480549054A064BCF
:10036000704700004D380008C5010008380500201E
:10037000380B0020380700203807002053EA020C11
:1003800000F069802DE9F04B4FF00006002B1FBFF5
:10039000B3FA83F503FA05F424FA05F65E4012BFBA
:1003A0001643B2FA82F502FA05F4C5F120051EBF24
:1003B00022FA05FC44EA0C04203556EA044C4FEAC4
:1003C000144418BF641C4FF000084FF0000990421D
:1003D00071EB030C39D3002919BFB1FA81F701FA87
:1003E00007F6B0FA80F700FA07F6C7F120071EBF3C
:1003F00020FA07FC46EA0C062037B6FBF4FCA7EB14
:100400000507103F07F01F0BCBF120062CFA06F66C
:100410000CFA0BFB44BFB3460026202FA4BF5E4658
:100420004FF0000B5BEA060C08BF4FF0010B19EB15
:100430000B0948EB0608ABFB027C06FB02CC0BFB6E
:1004400003CCC01B71EB0C01C1E70B4602464146D1
:100450004846BDE8F08B13B5084318BF4FF0FF3096
:100460000146AFF30080BDE81C4070470FB41CB5D7
:10047000084B06AA7B4469460090059800F015F9E0
:1004800004460020694600F023F920461CBC5DF8B4
:1004900014FB00005902000010B5431C02E010F8E4
:1004A000011B71B18107FAD14FF0013202C88C1AD9
:1004B0008C4314EAC211F9D0C01A0A0603D0C01E38
:1004C00010BDC01A10BD0A0401D0801E10BD090263
:1004D000FCD0401E10BD02F0FF0343EA032242EAB3
:1004E000024200F0DFBA4FF0000200B51346944616
:1004F0009646203922BFA0E80C50A0E80C50B1F17C
:100500002001BFF4F7AF090728BFA0E80C5048BF8F
:100510000CC05DF804EB890028BF40F8042B08BF2D
:10052000704748BF20F8022B11F0804F18BF00F829
:10053000012B704770477047704770B50446856956
:100540000068C10601D5302600E02026C00707D08C
:1005500070BDD4E9012130469047206A401C2062DA
:100560006D1EF6D570BD70B5044685690078C0076C
:1005700007D170BDD4E9012120209047206A401C9A
:1005800020626D1EF6D570BD09684A0501D540B2DE
:100590007047C905FCD500B2704709684A0501D506
:1005A000C0B27047C905FCD580B2704770B50C4623
:1005B0000546012A05D02878800600D5EA6900237F
:1005C00002E0012305E05B1C934202D2E05C0028BC
:1005D000F9D1A869E618C01AA861286A18442862E7
:1005E0002846FFF7AAFF04E0D5E9012114F8010B22
:1005F0009047B442F8D32846FFF7B5FF70BD00001E
:100600002DE9F0410646002410687529314616A5EB
:1006100010D0FFF7B9FF002802DA404213A507E027
:1006200031688A0701D512A502E0490704D511A552
:10063000012401E0FFF7B1FF00210A2206F124079F
:1006400009E0B0FBF2FCB0FBF2F302FB1C0030301F
:1006500078541846491C0028F3D123462A463046D0
:10066000BDE8F04100F083BA000000002D0000005A
:100670002B0000002000000011680268006A53058A
:1006800001D508700AE0D30501D5088006E01306FD
:1006900003D5C217C1E9000200E0086001207047DD
:1006A00001694A1C02610878704700B58FB0CDE936
:1006B00001310021059105497944CDE90310114626
:1006C000684600F029F90FB000BD0000E5FFFFFF0C
:1006D0000A6802F8010B0A60704700002DE9FF5F0D
:1006E00015468A460446DFF8AC80F8440027D8E96E
:1006F00000103E46CDE9001010E03AF816106A46A8
:1007000002A800F045FE411C07D02178890603D5D8
:10071000E269391891420DD80744761C207880068A
:1007200002D5E069B84205DDAE42E6DB3AF81600D4
:100730000028E2D1A069C01BA0612046FFF7FDFEA2
:10074000D8E90010CDE90010002017E03AF81810A1
:100750006A4602A800F01CFEB0F1FF3F81460BD0B4
:1007600000250DF1080B05E0D4E901211BF8050077
:1007700090476D1C4D45F7D308F10100B04280460B
:10078000E4DB206A384420622046FFF7ECFEBDE837
:10079000FF9F0000C64500002DE9F0418046D21DB4
:1007A00022F007020025D2E90002F52915A614D08F
:1007B000011E72F1000106DA0023D0EB030063EBA7
:1007C000020211A608E0D8F800108B0701D50FA689
:1007D00002E0490701D50EA601251146002408F1C3
:1007E000240704E000F07EF930323A55641C50EAE8
:1007F0000102F7D12B46324621464046BDE8F04182
:1008000000F0B5B9000000002D0000002B00000032
:100810002000000030B4002100F1240408E002F0C0
:100820000705D208303542EA4372DB086554491C9B
:1008300052EA0305F3D10468002310A2250708D566
:1008400004F020040C4304D0C46901230CA2641EEC
:10085000C46130BC00F08BB910B504462146106865
:10086000FFF79BFE02462046BDE810400023D1E77B
:10087000D21D22F00701D1E90023CBE700000000E0
:1008800030000000F0B40D460188090502D5214C66
:100890007C4402E01F4C7C440E34002100F124060D
:1008A00008E002F00F071209E75D42EA03721B0934
:1008B0007754491C52EA0307F3D102780023120748
:1008C00004D5702D06D009B1022311342246F0BCA4
:1008D00000F04DB901231034F8E770B504460D4619
:1008E00021461068FFF759FE024629462046BDE81A
:1008F00070400023C6E7D21D22F00703D3E900238E
:10090000C0E70368126843F0200303600823C36153
:100910000023B7E7284400002DE9F05F894604462C
:100920004FF0000ADFF874B1FB44C0F820A0204665
:10093000E1688847002874D0252806D0D4E9012131
:100940009047206A401C2062F1E700265F4620465F
:10095000E16888472028054607DB312D05D2781944
:1009600010F8200C08B10643F1E7B00701D526F0D6
:100970000406C4F81CA00027C4F818A02A2D09D02A
:10098000284604F0DBF838B304EB8708303DC8F89C
:10099000185019E059F8041B204604EB87029161B6
:1009A000E1688847012F054618D1E069002820DA60
:1009B00026F020061DE0D8F8180000EB800005EBBB
:1009C00040003038C8F818002046E16888470546DE
:1009D00004F0B4F80028EED1012F0AD02E2D08D152
:1009E0002046E16888477F1C0546022F46F0200616
:1009F000C4DBA069002803DA404246F00106A0618A
:100A0000F00701D026F010066C2D0BD0682D09D010
:100A10004C2D39D06A2D35D0742D35D07A2D33D068
:100A200016E038E0E1682F4620468847B842054680
:100A300009D16C2F26D04FF48060E1680643204630
:100A40008847054604E06C2F1AD04FF480700643A7
:100A50000DB3A5F14100192802D8203546F40066EF
:100A60004A462946204626604E46FFF7FBFB80B1EA
:100A700001280BD0F61D26F0070000F1080956E703
:100A80004020E4E78020D8E70020D6E706F10409FB
:100A90004DE7284652E7206ABDE8F09FB8430000C2
:100AA0004FF000020429C0F0128010F0030C3FF454
:100AB0001CADCCF1040CBCF1020F18BF00F8012BE7
:100AC000A8BF20F8022BA1EB0C01FFF70EBD5FEAD7
:100AD000C17C24BF00F8012B00F8012B48BF00F8AF
:100AE000012B704730B5B0F10A0271F100034FEAF3
:100AF000900E4EEA817EB0EB0E0061EB91014FEA61
:100B0000101E4EEA017E10EB0E0041EB11114FEA70
:100B1000102E4EEA016E10EB0E0041EB11214FEA50
:100B2000104E4EEA014E10EB0E0041EB1141401801
:100B300041F100014FEAD00040EA41704FEAD10193
:100B40004FEA810444EA907410EB800544EB010401
:100B50006D1944EB0404521BA3414FF0000348BF3E
:100B60000A3200D530BD401C41F1000130BD2DE9F5
:100B7000F0470D4699469246044600F12408016864
:100B8000880604D5E06921F01001216000E0012011
:100B9000A84201DD471B00E00027A1697A1902EB9A
:100BA0000900081AA0612078C00602D42046FFF789
:100BB000C4FC002608E0D4E901211AF80600904799
:100BC000206A401C761C20624E45F4DB2078C0066B
:100BD0000AD52046FFF7B1FC06E0D4E90121302018
:100BE0009047206A401C2062381EA7F10107F4DC00
:100BF00007E0D4E9012118F805009047206A401C5D
:100C00002062281EA5F10105F3DC2046FFF7ABFCAE
:100C10002078000602D50220BDE8F0870120FBE71E
:100C20002DE9FF4F0C461E464FF0FF378BB0D2E93F
:100C30000001DDF860800A908A46C1F30A5505B9C3
:100C40003D46002108464FF00000BAF1000F00F4C5
:100C5000400005DA00EB80004FF4400101EA50004B
:100C60004FEA9059B9F1010F00DDB9460A9850EAF0
:100C70004A000ED044F61050A5F2FF3545432F141C
:100C8000B8F1000F1ED07542291E1EDDC9F1000209
:100C90001CE0B8F1010F4FF0000001D0302103E05B
:100CA000F24305E02154401CB042FBDB30460022F9
:100CB000002121540B99C1F80880C1E900200FB030
:100CC000BDE8F08FBD1B6D1CDEE74A4600DA6942C5
:100CD00006A800F0F7FB06AB93E8070003AB83E838
:100CE000070050460A9903F049FB8DE80700A0F57C
:100CF00000501F3800900398002D0ADD42F21F01BA
:100D00004A460844002303A90390684603F0B2FD55
:100D100009E0A0F500504A461F38002303A90390BC
:100D2000684603F0BCFD8DE807000004000C03D00A
:100D30004FF0FF30410800E01046B8F1000F03D03B
:100D40000022009215461EE0751E05D4FFF7CAFE6C
:100D5000303262556D1EF9D5B3460122084302D0E8
:100D600000227F1C04E02078302801D100227F1E61
:100D7000002A099784D01DE0112D07DAFFF7B2FE93
:100D8000303262556D1C50EA0102F5D1084302D0A1
:100D90000098C8B10EE00021681E05E0235C625C8B
:100DA00063542254401E491C8142F7DBAB46A81B0A
:100DB000401E0990002004F80B000B98099AC0F817
:100DC0000880C0E9002B7AE711264FF0000857E7AA
:100DD0002DE9F04F88460446D21D22F0070191B05C
:100DE000D1E90001CDE90A0103F090FE02460B981B
:100DF000C00F01D02D2007E02068810701D52B20EE
:100E000002E0202101EAC000032A099001D0072A4C
:100E100005DB03464146204600F014FB0BE1207839
:100E2000800601D5E06900E00620B8F1650F814633
:100E300006D0B8F1660F18D0B8F1670F70D131E065
:100E40000020B9F1110F009001DB112301E009F13D
:100E500001030AAA01A90CA8FFF7E2FEDDE90C7064
:100E6000002609F10105834647E001204B4600902A
:100E70004FF000470AAA01A90CA8FFF7D1FEDDE94F
:100E80000DB00C995D46002610B909F101000D184E
:100E9000B9EB050003D4C0F1FF3609F10105A5EB5C
:100EA00009002BE0B9F1010F01DA4FF00109002030
:100EB000B9F1110F0090484601DD112300E003460F
:100EC0000AAA01A90CA8FFF7ABFEDDE90C704D469C
:100ED00000268346207800070AD4AB4500DA5D4639
:100EE00001A8012D04DD411911F8011C302907D09A
:100EF0004F4502DA17F1040F04DA012082460FE0B1
:100F00006D1EEEE7002F02DCED1B3E4403E0781C73
:100F1000A84200DD7D1CB81B00F1010A4FF000471C
:100F20002078000703D4AA4501DB4FF0FF3A0021E7
:100F3000B7F1004F0DF143088DF8431024D0022083
:100F40002B23002F01DA7F422D230A21021EA0F15C
:100F5000010000DC5FB197FBF1FC97FBF1F201FBB4
:100F60001C7C17460CF1300C08F801CDEEE7A8F117
:100F7000010003702188090501D5452100E06521A4
:100F8000A0F1010800F8011C09980FA9A1EB0807BE
:100F9000FF1D00B10120411901EBEA70A16938443D
:100FA000081A401EA0612078C00602D42046FFF730
:100FB000C4FA099828B1D4E901219047206A401C5D
:100FC00020622078C00622D52046FFF7B6FA1EE040
:100FD000002E04DBB34502DD01A8805D00E0302077
:100FE000D4E901219047206A401C2062761CAAF1B6
:100FF00001005FEA000A0AD100F020FAC068016827
:10100000405CD4E901219047206A401C2062281EE0
:10101000A5F10105DCDC07E0D4E9012118F8010B9A
:101020009047206A401C2062381EA7F10107F3DCBC
:101030002046FFF798FA032011B041E62DE9F04F62
:1010400004460D46D21D22F0070089B0D0E9009772
:101050004846394603F05AFD0246F80F01D02D23C9
:1010600007E02068810701D52B2302E0202101EA57
:10107000C0038DF820300BB1012000E00020032ACE
:10108000824601D0072A04DB2946204600F0DAF91F
:101090003FE12078800601D40D2500E0E569C7F323
:1010A0000A560D2D49DA00214FEA175B08464FF02A
:1010B0000000002F00F4400007DA00EB80004FF43E
:1010C000400100EBD07001EA60008115012901DDCB
:1010D0004FF0FF3100224FEA850CBCF1180F06D308
:1010E0001346ACF118004FF08052C24003E04FF4B9
:1010F000801323FA0CF30CF10C0CBCF1200F04D379
:10110000ACF1200C09FA0CF001E007FA0CF0002910
:101110004FF0004801DD18B90FE00ED140450CD367
:1011200019EB02095F4121B9404502D19F4329EAE9
:101130000209BBEB175F00D0761C2088000502D5A2
:101140007B48784402E07A487844193808AA30236A
:1011500002F80A30037C0AF10101002E0AF1020AAA
:1011600053546A4602DC4FF0300101E04FF0310188
:101170004FF001088DF8001002D0A6F2FF3603E010
:1011800059EA470100D06B4E002D02DC2178090797
:1011900004D54FF002082E218DF80110C44600211D
:1011A0000BE0C7F303433F01C35C491C6D1E02F80B
:1011B0000830052908F1010801DA002DF1DC0021D1
:1011C0000CE000EB1973491C1B786D1E082902F80E
:1011D00008304FEA091908F1010801DA002DF0DCA6
:1011E00021688B0602D516E0A8F10108E04505DD6F
:1011F00002EB080313F8013C302BF5D0B8F1000FD7
:1012000009DD02EB080313F8013C2E2B03D109077B
:1012100001D4A8F10108002D05DD3E2102F80810D7
:101220006D1E08F10108407C002E02F8080008F14C
:10123000010804DA2D20764202F8080002E02B2093
:1012400002F808000A214FF47A70864208F101087A
:101250000BDB96FBF0F3303302F8083096FBF0F32B
:1012600008F1010800FB136601E0642E0CDB64202A
:1012700096FBF0F3303302F8083096FBF0F308F1F8
:10128000010800FB136601E00A2E06DB96FBF1F075
:10129000303002F8080008F1010896FBF1F001FB7C
:1012A0001060303002F80800A16908F1010808EB6D
:1012B000050202EB0A00081AA0612078C00602D4D9
:1012C0002046FFF73AF9216A08AE01EB0A002062D6
:1012D00004E0D4E9012116F8010B9047BAF1010AA4
:1012E000F7D22078C00602D52046FFF726F96E46D1
:1012F00009E016F8010B3E280FD0D4E901219047F0
:10130000206A401C2062B8F10108F2D22046FFF7A3
:101310002AF909B00320BDE8F08F206A2844206232
:1013200003E0D4E90121302090476D1EEBD3F8E7AC
:10133000C23B000002FCFFFF10B5436913B1AFF3DD
:10134000008001E0FFF732F9012010BD127800F1B2
:1013500024010A7000224A700122EDE711684FF063
:10136000FF32E9E710B5436913B1AFF3008001E044
:10137000FFF7B4F9012010BD128800F12401828426
:101380000022C2840122EDE711684FF0FF32E9E745
:101390002DE9F04116460C46054600F047F8036873
:1013A00093F80101012807D0FF2C12D8185D80B1F5
:1013B00001202C70BDE8F081D3F8070132462146A8
:1013C00003F20713C7182846BC46BDE8F0410023C6
:1013D00060474FF0FF30EDE70048704710000020F5
:1013E0007546FFF7F9FFAE4605006946534620F003
:1013F0000700854618B020B5FEF7AEFFBDE82040D7
:101400004FF000064FF000074FF000084FF0000BC0
:10141000AC46ACE8C009ACE8C009ACE8C009ACE82F
:10142000C00921F007018D467047000010B500F09B
:1014300005F8001D10BD00BF41370000004870478F
:10144000300000202DE9F0411F46044603260168C4
:10145000072A01F4006004DB08B116A505E016A513
:1014600003E008B115A500E015A521F010002060EB
:10147000A069C01EA0610FB1401EA0612046FFF709
:101480005CF84FB1D4E9012138469047206A401CEE
:101490002062C01C206206E0206AFAE7D4E901213C
:1014A00015F8010B9047761EF8D22046FFF75BF83F
:1014B000BDE8F0814E414E006E616E00494E46001F
:1014C000696E66002DE9F047814616468AB03548B8
:1014D00078440DC88DE80D0032487844801C03AC78
:1014E0000DC884E80D0041F69B300844372190FB7D
:1014F000F1F290FBF1F5A5F1800501FB12041B3C14
:1015000002D56442012000E00020DFF898A0804668
:101510000027FA44AAF1BE0A0EE0E0070AD03246DC
:10152000684607EB470101230AEB810103F0B7F995
:101530008DE8070064107F1C002CEED1194F7F440A
:10154000AE3F19E0E80715D007EB04100DF1180ABB
:1015500090E80E008AE80E00C068F04201D19819A8
:1015600008903246012306A903A803F098F903ABBB
:1015700083E807006D10641C002DE3D14FF00103D8
:1015800032466946B8F1000F03A802D003F072F9A1
:1015900001E003F084F9C9E90001C9F808200AB0A4
:1015A000BDE8F087C438000010B50446AFF30080F2
:1015B0002046BDE81040FEF7BABE00000000000063
:1015C00030B44FF0013C50F8042B51F8043BCCFAF6
:1015D00052F4D51A20D1FCB950F8042B51F8043B31
:1015E000CCFA52F4D51A17D1B4B950F8042B51F8EB
:1015F000043BCCFA52F4D51A0ED16CB950F8042B36
:1016000051F8043BCCFA52F4D51A05D1002CDAD0AB
:1016100030BC4FF00000704729BAB1FA81F111F0E7
:101620001801D1F120008440F2D1CA40CB4012F021
:10163000FF0213F0FF0330BCD01A70470149182095
:10164000ABBEFEE72600020070470000FFE7FEE7A2
:101650007047000080B5012000F06CF880BD0000EC
:1016600072B6FFE7FEE7000080B584B0039000F09B
:1016700063FA0290039801900198013048B1FFE7A6
:1016800040F20400C2F20000017801980844019081
:10169000FFE7FFE700F050FA0299401A01998842EB
:1016A00001D2FFE7F6E704B080BD000080B582B04C
:1016B000ADF80600BDF80600012838D1FFE700F0BC
:1016C0003BFA0090009840F21851C2F200010968FC
:1016D000401AB0F5337F28D3FFE740F22451C2F21D
:1016E000000108680130086040F21850C2F20000A2
:1016F000006898B1FFE7009840F21851C2F200016B
:101700000968401A40F22851C2F20001086040F214
:101710001C51C2F2000101200870FFE7009840F25E
:101720001851C2F20001086000E0FFE7FFE702B0D5
:1017300080BD000080B582B0ADF8060043F61440CD
:10174000C4F201000068BDF8061008420CD0FFE7A3
:10175000BDF8060043F61441C4F201010860BDF86B
:101760000600FFF7A3FFFFE702B080BD8DB00C902D
:101770000B9100200990089007900A90FFE70A98C3
:101780000F2800F2BE81FFE70A99012088400990E6
:101790000B980068099908400890089809998842B0
:1017A00040F0AA81FFE70B98406800F00300012891
:1017B00007D0FFE70B98406800F0030002282FD104
:1017C000FFE70C98806807900A984100032000FA10
:1017D00001F10798884307900B98C0680A9949005F
:1017E00000FA01F107980843079007980C99886060
:1017F0000C98406807900A99012000FA01F10798B7
:10180000884307900B984068C0F300100A9900FACB
:1018100001F107980843079007980C994860FFE783
:101820000B98406800F00300032818D0FFE70C98DD
:10183000C06807900A984100032000FA01F1079858
:10184000884307900B9880680A99490000FA01F1D3
:1018500007980843079007980C99C860FFE70B9812
:10186000406800F00300022826D1FFE70C980A998F
:101870006FF0030202EA51010844006A07900A98D7
:1018800000F0070081000F2000FA01F1079888435B
:1018900007900B9800690A9901F00701890000FA86
:1018A00001F107980843079007980C990A9B02EAF0
:1018B000530211440862FFE70C98006807900A98E9
:1018C0004100032000FA01F10798884307900B9824
:1018D000406800F003000A99490000FA01F10798F6
:1018E0000843079007980C9908600B988079800747
:1018F000002800F00081FFE7FFE70020069043F694
:101900004400C4F20200016841F4804101600068B3
:1019100000F4804006900698FFE70A9820F0030044
:1019200043F60801C4F20101405807900A9800F0FC
:10193000030081000F2000FA01F107988843079007
:101940000C980021C4F20201884203D1FFE7002075
:10195000059050E00C9840F20041C4F20201884228
:1019600003D1FFE70120049042E00C9840F600010B
:10197000C4F20201884203D1FFE70220039034E061
:101980000C9840F60041C4F20201884203D1FFE7FF
:101990000320029026E00C9841F20001C4F20201FB
:1019A000884203D1FFE70420019018E00C9841F22F
:1019B0000041C4F20201884203D1FFE705200090F4
:1019C0000AE00C9941F60002C4F20202072091429B
:1019D00008BF06200090FFE700980190FFE70198FC
:1019E0000290FFE702980390FFE703980490FFE757
:1019F00004980590FFE70598C0B20A9901F0030129
:101A0000890000FA01F107980843079007980A999E
:101A100021F0030143F60802C4F20102885043F6A4
:101A20000840C4F2010000680790089907988843AD
:101A300007900B988079C006002805D5FFE7089924
:101A4000079808430790FFE7079843F60841C4F258
:101A50000101086043F60C40C4F2010000680790E1
:101A600008990798884307900B988079800600288A
:101A700005D5FFE70899079808430790FFE70798FF
:101A800043F60C41C4F20101086043F60440C4F27D
:101A900001000068079008990798884307900B9801
:101AA00080798007002805D5FFE708990798084343
:101AB0000790FFE7079843F60441C4F2010108606C
:101AC00043F60040C4F201000068079008990798A7
:101AD000884307900B988079C00728B1FFE70899E1
:101AE000079808430790FFE7079843F60041C4F2C0
:101AF00001010860FFE7FFE7FFE70A9801300A905D
:101B00003DE60DB07047000082B00190ADF80210C4
:101B10008DF801209DF8010028B1FFE7BDF8020013
:101B20000199886105E0BDF802000004019988610F
:101B3000FFE702B07047000040F23450C2F20000EC
:101B40000068704780B58EB00C900C9820B9FFE704
:101B500001208DF8370043E10C9890F83D0040B922
:101B6000FFE70C99002081F83C000C9800F046FA41
:101B7000FFE70C99242081F83D000C980168086863
:101B800020F0010008600C980168086840F40040EB
:101B900008600C980168086820F40040086000F0B4
:101BA00069FC0A900C98406848F2A061C0F20101FB
:101BB00088420BD8FFE70A9948F28042C0F21E0221
:101BC0000020914238BF012009900AE00A9940F6AE
:101BD0000012C0F23D020020914238BF012009905E
:101BE000FFE70998012804D1FFE701208DF83700AD
:101BF000F6E00A984DF68361C4F21B31A0FB011098
:101C0000800C0B900C980068406820F03F000B9906
:101C100008430C99096848600C980068006A20F035
:101C20003F0008900C98406848F2A061C0F20101A2
:101C3000884204D8FFE70B98013007900EE00B981C
:101C40004FF49671484344F6D351C1F26201A0FBB0
:101C50000101012000EB91100790FFE70898079918
:101C600008430C99096808620C980068C0694CF632
:101C7000FF71884306900C98406848F2A061C0F25A
:101C8000010188421FD8FFE70A9801380C9949687A
:101C90004900B0FBF1F001306FF31F30032803D887
:101CA000FFE7042005900BE00A9801380C99496879
:101CB0004900B0FBF1F001306FF31F300590FFE7F2
:101CC000059804904CE00C98806868B9FFE70A9882
:101CD00001380C99496801EB4101B0FBF1F001308A
:101CE0006FF31F3003900DE00A9801380C99496892
:101CF00019225143B0FBF1F00130042161F31F3090
:101D00000390FFE70398000518B9FFE70120029050
:101D100023E00C98806868B9FFE70A9801380C99AD
:101D2000496801EB4101B0FBF1F001306FF31F3066
:101D300001900DE00A9801380C9949681922514325
:101D4000B0FBF1F00130042161F31F300190FFE797
:101D5000019840F400400290FFE702980490FFE7EA
:101D60000698049908430C990968C8610C980068A2
:101D7000006820F0C0000C9B1968DA691B6A1A43DE
:101D8000104308600C980068806848F2FF3188436F
:101D90000C9A1168D36812691A43104388600C9832
:101DA0000068C06820F0FF000C9B19685A699B69A5
:101DB0001A431043C8600C980168086840F001009D
:101DC00008600C99002008640C9A202182F83D10CC
:101DD0000C9908630C9981F83E008DF83700FFE7F5
:101DE0009DF837000EB080BD10B588B084460C98C1
:101DF0000B98DDF828E0CDF818C0ADF81610ADF856
:101E00001420ADF81230ADF81000FFF795FE0390E6
:101E1000069890F83D00202840F0E880FFE70698FB
:101E200003996A4611600221C0F2100101221923B0
:101E300001F0F0F920B1FFE702208DF81F00D9E092
:101E4000FFE7069890F83C00012804D1FFE7022044
:101E50008DF81F00CEE00699012081F83C00FFE7D5
:101E6000FFE706980068006800F00100012807D02D
:101E7000FFE706980168086840F001000860FFE786
:101E800006980168086820F400600860069921201F
:101E900081F83D000699402081F83E000699002017
:101EA00008640A9806994862BDF8100006994885AA
:101EB0000698408D0699088506990020CFF6FF7098
:101EC000C8620698BDF81610BDF81420BDF812308F
:101ED000DDF830C0039CEE46CEF80440CEF800C0DA
:101EE00001F0A4F820B1FFE701208DF81F0081E088
:101EF000FFE70698008D002849D0FFE706980C9967
:101F0000039A01F0B5FA80B1FFE70698006C042847
:101F100007D1FFE706980168086840F40070086080
:101F2000FFE701208DF81F0064E006980168406A11
:101F3000007808610699486A013048620699088D60
:101F4000013808850699488D01384885069800684B
:101F5000406900F004010120B0EB910F16D1FFE7BA
:101F60000698008D90B1FFE706980168406A0078F6
:101F700008610699486A013048620699088D01385F
:101F800008850699488D01384885FFE7B1E706982E
:101F90000C99039A01F0E8F880B1FFE70698006C0D
:101FA000042807D1FFE706980168086840F400702C
:101FB0000860FFE701208DF81F001BE0069801680C
:101FC000086840F4007008600699202081F83D0000
:101FD0000699002081F83E00FFE70699002081F86D
:101FE0003C00FFE700208DF81F0003E002208DF881
:101FF0001F00FFE79DF81F0008B010BD80B588B036
:102000000790002006900590049003900290079896
:10201000006845F20041C4F20001884235D1FFE773
:10202000FFE70020019043F63000C4F2020001688F
:1020300041F002010160006800F002000190019887
:10204000FFE74FF4407002901220039000200490AC
:10205000032005900420069040F20040C4F20200E4
:1020600002A9FFF783FBFFE70020009043F6400042
:10207000C4F20200016841F400110160006800F43C
:10208000001000900098FFE7FFE708B080BD000057
:1020900040F20400C2F20000027840F23451C2F271
:1020A00000010868104408607047000080B582B0E5
:1020B00043F60041C4F20201086840F40070086071
:1020C000086840F480600860086840F48070086028
:1020D000032000F08FF80020019000F005F800F0D8
:1020E0003BF8019802B080BD80B582B0009040F20C
:1020F0000000C2F20000006840F20401C2F20001D8
:102100000A784FF47A71B1FBF2F1B0FBF1F000F014
:1021100021FE20B1FFE701208DF8070018E00098AC
:102120000F280DD8FFE700994FF0FF30002200F094
:1021300047F8009840F20801C2F20001086003E08D
:1021400001208DF8070003E000208DF80700FFE76D
:102150009DF8070002B080BD80B582B0FFE7002087
:10216000019043F64400C4F20200016841F480414A
:102170000160006800F4804001900198FFE7FFE7EC
:102180000020009043F64000C4F20200016841F0D4
:1021900080510160006800F0805000900098FFE7D7
:1021A000072000F027F802B080BD000080B582B0A3
:1021B0008DF807009DF9070001F0AAFC02B080BD70
:1021C00080B586B08DF8170004910392002002902C
:1021D00001F0B6FC02909DF9170001900298049955
:1021E000039A01F06FFA0146019801F0B1FC06B0C4
:1021F00080BD000080B582B00190019801F0CAFC5A
:1022000002B080BD80B584B002900191029820B9DF
:10221000FFE701208DF80F0021E1019843F600410E
:10222000C4F20201096801F00F01884212D9FFE7E8
:10223000019943F60040C4F202000170006800F00A
:102240000F000199884204D0FFE701208DF80F00AC
:1022500005E1FFE702980078800700282AD5FFE70C
:10226000029800784007002809D5FFE743F60801E7
:10227000C4F20201086840F4E0500860FFE70298E9
:1022800000780007002809D5FFE743F60801C4F2EB
:102290000201086840F460400860FFE743F6080167
:1022A000C4F20201086820F0F000029A926810431C
:1022B0000860FFE702980078C00700286ED0FFE7AB
:1022C00002984068012811D1FFE743F60000C4F2EC
:1022D0000200006800F400310020B0EB514F04D13F
:1022E000FFE701208DF80F00B9E02CE0029840686C
:1022F000022805D0FFE702984068032811D1FFE7C4
:1023000043F60000C4F20200006800F000710020F3
:10231000B0EB516F04D1FFE701208DF80F009EE074
:1023200010E043F60000C4F20200006800F0020171
:102330000020B0EB510F04D1FFE701208DF80F0012
:102340008DE0FFE7FFE743F60801C4F202010868E9
:1023500020F00300029A526810430860FFF7ECFB7C
:102360000090FFE743F60800C4F20200006800F0A6
:102370000C0002994968B0EB810F0ED0FFE7FFF720
:10238000DBFB0099401A41F28931884204D3FFE710
:1023900003208DF80F0062E0E4E7FFE7019843F6C1
:1023A0000041C4F20201096801F00F01884212D213
:1023B000FFE7019943F60040C4F202000170006893
:1023C00000F00F000199884204D0FFE701208DF84A
:1023D0000F0044E0FFE702980078400700280CD582
:1023E000FFE743F60801C4F20201086820F4E05058
:1023F000029AD26810430860FFE70298007800074D
:1024000000280DD5FFE743F60801C4F20201086871
:1024100020F46040029A126940EAC2000860FFE7B7
:1024200000F04CF843F60801C4F202010968C9B291
:102430000A0944F6B051C0F60001895CC84040F278
:102440000001C2F20001086040F20800C2F2000080
:102450000068FFF749FE00208DF80F00FFE79DF8A8
:102460000F0004B080BD000040F20000C2F2000086
:102470000068704780B5FFF7F7FF43F60801C4F224
:1024800002010968C1F3822244F6C051C0F600017E
:10249000895CC84080BD000080B5FFF7E5FF43F6CA
:1024A0000801C4F20201096889B24A0B44F6C0511E
:1024B000C0F60001895CC84080BD000080B586B0D0
:1024C00000200590049003900290019043F60800CC
:1024D000C4F20200006800F00C00014600910C28D4
:1024E00000F29B800099DFE801F0079898980D981A
:1024F000989813989898570042F20040C0F2F40060
:10250000019090E041F20020C0F27A0001908AE050
:1025100043F60400C4F20200016801F03F01059196
:1025200000684002002813D5FFE743F60400C4F218
:1025300002000068C0F3881041F20021C0F27A0165
:10254000A0FB0101059A0023FDF718FF049012E09B
:1025500043F60400C4F202000068C0F3881042F29F
:102560000041C0F2F401A0FB0101059A0023FDF730
:1025700005FF0490FFE743F60400C4F20200006880
:1025800000F44031022000EBD1300390049803990D
:10259000B0FBF1F0019046E043F60400C4F2020003
:1025A000016801F03F01059100684002002813D541
:1025B000FFE743F60400C4F202000068C0F388108D
:1025C00041F20021C0F27A01A0FB0101059A00232B
:1025D000FDF7D4FE049012E043F60400C4F20200BA
:1025E0000068C0F3881042F20041C0F2F401A0FB81
:1025F0000101059A0023FDF7C1FE0490FFE743F6B1
:102600000400C4F202000068C0F302700290049853
:102610000299B0FBF1F0019005E042F20040C0F2F7
:10262000F4000190FFE7019806B080BD80B586B048
:102630000490049820B9FFE701208DF8170084E387
:1026400004980078C007002800F0BA80FFE743F63E
:102650000800C4F20200006800F00C00042828D032
:10266000FFE743F60800C4F20200006800F00C0027
:1026700008280BD1FFE743F60400C4F2020000680B
:1026800000F48000B0F5800F13D0FFE743F6080098
:10269000C4F20200006800F00C000C281ED1FFE715
:1026A00043F60400C4F2020000684002002815D579
:1026B000FFE743F60000C4F20200006800F40031B6
:1026C0000020B0EB514F08D0FFE70498406820B9D4
:1026D000FFE701208DF8170037E370E0FFE704986B
:1026E0004068B0F5803F09D1FFE743F60001C4F22E
:1026F0000201086840F48030086020E004984068D7
:10270000B0F5A02F0DD1FFE743F60001C4F202019E
:10271000086840F480200860086840F48030086051
:102720000CE043F60001C4F20201086820F4803096
:102730000860086820F480200860FFE7FFE7FFE7F3
:1027400004984068E8B1FFE7FFF7F6F90390FFE768
:1027500043F60000C4F20200006800F400310020DB
:10276000B0EB514F0CD1FFE7FFF7E6F90399401AA0
:10277000652804D3FFE703208DF81700E5E2E7E7BB
:102780001CE0FFF7D9F90390FFE743F60000C4F21D
:102790000200006800F400310020B0EB514F0CD073
:1027A000FFE7FFF7C9F90399401A652804D3FFE74B
:1027B00003208DF81700C8E2E7E7FFE7FFE7FFE730
:1027C000049800788007002840F1A980FFE743F6CD
:1027D0000800C4F20200006810F00C0F26D0FFE7DA
:1027E00043F60800C4F20200006800F00C0008285C
:1027F00009D1FFE743F60400C4F20200006840027A
:10280000002813D5FFE743F60800C4F20200006871
:1028100000F00C000C282CD1FFE743F60400C4F2B2
:10282000020000684002002823D4FFE743F60000BE
:10283000C4F20200006800F002010020B0EB510F6A
:1028400009D0FFE70498C068012804D0FFE7012001
:102850008DF8170079E243F60001C4F2020108681E
:1028600020F0F800049A126940EAC2000860FFE70D
:1028700054E00498C06870B3FFE70021C4F2472118
:1028800001200860FFF758F90390FFE743F60000C6
:10289000C4F20200006800F002010020B0EB510F0A
:1028A0000CD1FFE7FFF748F90399401A032804D336
:1028B000FFE703208DF8170047E2E7E743F6000142
:1028C000C4F20201086820F0F800049A126940EA94
:1028D000C200086021E00021C4F247210020086006
:1028E000FFF72AF90390FFE743F60000C4F2020065
:1028F000006800F002010020B0EB510F0CD0FFE7A0
:10290000FFF71AF90399401A032804D3FFE70320BD
:102910008DF8170019E2E7E7FFE7FFE7FFE7049804
:102920000078000700284BD5FFE70498406918B3EA
:10293000FFE740F68061C4F2472101200860FFF7FD
:10294000FBF80390FFE743F67400C4F2020000684E
:1029500000F002010020B0EB510F0CD1FFE7FFF7B0
:10296000EBF80399401A032804D3FFE703208DF8FE
:102970001700EAE1E7E722E040F68061C4F2472170
:1029800000200860FFF7D8F80390FFE743F67400D3
:10299000C4F20200006800F002010020B0EB510F09
:1029A0000CD0FFE7FFF7C8F80399401A032804D3B7
:1029B000FFE703208DF81700C7E1E7E7FFE7FFE730
:1029C000049800784007002840F1CE80FFE70020FF
:1029D0008DF8070043F64000C4F202000068C00012
:1029E000002815D4FFE7FFE70020009043F64000E1
:1029F000C4F20200016841F080510160006800F0FB
:102A0000805000900098FFE701208DF80700FFE755
:102A100047F20000C4F200000068C005002822D47C
:102A2000FFE747F20001C4F20001086840F480703B
:102A30000860FFF781F80390FFE747F20000C4F257
:102A400000000068C00500280CD4FFE7FFF774F809
:102A50000399401A032804D3FFE703208DF81700D9
:102A600073E1EAE7FFE7FFE704988068012809D1EE
:102A7000FFE743F67001C4F20201086840F001006C
:102A800008601FE00498806805280DD1FFE743F631
:102A90007001C4F20201086840F004000860086890
:102AA00040F0010008600CE043F67001C4F202013E
:102AB000086820F001000860086820F00400086041
:102AC000FFE7FFE7FFE704988068F8B1FFE7FFF74B
:102AD00033F80390FFE743F67000C4F20200006889
:102AE00000F002010020B0EB510F0ED1FFE7FFF71D
:102AF00023F80399401A41F28931884204D3FFE751
:102B000003208DF8170020E1E5E71EE0FFF714F839
:102B10000390FFE743F67000C4F20200006800F083
:102B200002010020B0EB510F0ED0FFE7FFF704F8D1
:102B30000399401A41F28931884204D3FFE7032008
:102B40008DF8170001E1E5E7FFE79DF80700012890
:102B500009D1FFE743F64001C4F20201086820F002
:102B600080500860FFE7FFE704988069002800F0C4
:102B7000E880FFE743F60800C4F20200006800F0B6
:102B80000C00082800F08880FFE70498806902287C
:102B90005FD1FFE76021C4F2472100200860FEF703
:102BA000CBFF0390FFE743F60000C4F20200006889
:102BB00000F000710020B0EB516F0CD0FFE7FEF782
:102BC000BBFF0399401A032804D3FFE703208DF8C5
:102BD0001700BAE0E7E70499C869D1F820C04B6A4A
:102BE0008A6A40EA0C0040EA8310D2034FF6FF7372
:102BF0009A43A2F580321043CA6A40EA0260096B28
:102C000040EA017043F60401C4F202010860602149
:102C1000C4F2472101200860FEF78EFF0390FFE712
:102C200043F60000C4F20200006800F000710020CA
:102C3000B0EB516F0CD1FFE7FEF77EFF0399401A0E
:102C4000032804D3FFE703208DF817007DE0E7E7B2
:102C500021E06021C4F2472100200860FEF76CFFEC
:102C60000390FFE743F60000C4F20200006800F0A2
:102C700000710020B0EB516F0CD0FFE7FEF75CFF56
:102C80000399401A032804D3FFE703208DF81700A7
:102C90005BE0E7E7FFE753E004988069012804D18F
:102CA000FFE701208DF817004FE043F60400C4F25F
:102CB0000200006802900498806901283AD0FFE77A
:102CC000029800F480000499C969884232D1FFE774
:102CD000029800F03F000499096A88422AD1FFE770
:102CE000029847F6C07108400499496AB0EB811F09
:102CF00020D1FFE7029800F440300499896AC903A3
:102D00004FF6FF729143A1F58031884212D1FFE75F
:102D1000029800F070600499C96AB0EB016F09D1A4
:102D2000FFE7029800F0E0400499096BB0EB017FE7
:102D300004D0FFE701208DF8170006E0FFE7FFE76A
:102D4000FFE700208DF81700FFE79DF8170006B099
:102D500080BD000080B582B00190019800F0ECFCCD
:102D600002B080BD80B582B00090009820B9FFE726
:102D700001208DF8070040E00098806908B1FFE766
:102D800000E0FFE7009890F8410040B9FFE70099A4
:102D9000002081F84000009800F034F8FFE7009927
:102DA000242081F8410000980168C86820F4005090
:102DB000C860009800F09EFD00980168086920F442
:102DC0009040086100980168486920F02A00486135
:102DD00000980168C86840F40050C860009900205D
:102DE0004864009A202182F84110009A82F842102B
:102DF000009948638DF80700FFE79DF8070002B0CF
:102E000080BD000080B588B0079000200690059036
:102E10000490039002900798006844F20041C4F2C5
:102E20000001884233D1FFE7FFE70020019043F61D
:102E30004000C4F20200016841F400310160006802
:102E400000F4003001900198FFE7FFE700200090B8
:102E500043F63000C4F20200016841F00101016054
:102E6000006800F0010000900098FFE70C2002903D
:102E70000220039000200490032005900720069074
:102E80000020C4F2020002A9FEF770FCFFE708B0C0
:102E900080BD000080B58AB008900791ADF81A2077
:102EA000059300200290089890F84100202840F0F7
:102EB0008180FFE7079820B1FFE7BDF81A0020B92D
:102EC000FFE701208DF8270078E00899002048648A
:102ED0000899212081F84100FEF72EFE0290BDF8EE
:102EE0001A0008998884BDF81A000899C8840898BF
:102EF0008068B0F5805F09D1FFE70898006928B9BC
:102F0000FFE7002004900798039004E007980490DE
:102F100000200390FFE7FFE70898C08C78B3FFE735
:102F20000898029B05996A4611608021002200F0F2
:102F30007FFD40B1FFE70899202081F84100032080
:102F40008DF827003AE0049858B9FFE70398008805
:102F50006FF35F2008990968486003980230039076
:102F600008E00498007808990968486004980130DE
:102F70000490FFE70899C88C0138C884CCE708980A
:102F8000029B05996A4611604021002200F050FD25
:102F900040B1FFE70899202081F8410003208DF817
:102FA00027000BE00899202081F8410000208DF8CF
:102FB000270003E002208DF82700FFE79DF8270097
:102FC0000AB080BDFFE7FEE782B00090009800687D
:102FD000406900F480610120B0EB912F1ED1FFE722
:102FE000009801686FF480604861009900200863D0
:102FF000009A202182F83D10009981F83E00009946
:10300000086C40F004000864FFE70099002081F894
:103010003C00FFE701208DF8070003E000208DF859
:103020000700FFE79DF8070002B0704780B586B043
:10303000DDF824C0DDF820C00490ADF80E10ADF826
:103040000C20ADF80A3004980168086840F48070DC
:1030500008600498089B09996A4611604FF00111B5
:10306000002200F0D7F880B1FFE7049800680068FC
:10307000C005002805D5FFE704994FF400700864E7
:10308000FFE703208DF8170069E0BDF80E0000F09F
:10309000FE000499096808610498089A099B0221B6
:1030A000C0F2010100F03AF920B1FFE701208DF8EC
:1030B000170054E0FFE70020019004980068406981
:1030C000019004980068806901900198FFE70498D6
:1030D0000899099A00F0CCF980B1FFE70498006CD8
:1030E000042807D1FFE704980168086840F40070DD
:1030F0000860FFE701208DF8170030E0BDF80A00F6
:10310000012806D1FFE79DF80C00049909680861C1
:1031100021E09DF80D000499096808610498089958
:10312000099A00F0A5F980B1FFE70498006C042823
:1031300007D1FFE704980168086840F40070086050
:10314000FFE701208DF8170009E09DF80C000499B5
:1031500009680861FFE700208DF81700FFE79DF878
:10316000170006B080BD000080B584B002900191C8
:103170000092FFE702980068406900F00401002017
:10318000B0EB910F3ED1FFE70298FFF71DFF20B192
:10319000FFE701208DF80F0038E00198013080B37F
:1031A000FFE7FEF7C9FC0099401A0199884203D84D
:1031B000FFE7019820BBFFE702980068406900F034
:1031C00004010020B0EB910F19D1FFE70299002014
:1031D0000863029A202182F83D10029981F83E008E
:1031E0000299086C40F020000864FFE70299002073
:1031F00081F83C00FFE701208DF80F0006E0FFE7B3
:10320000FFE7B7E700208DF80F00FFE79DF80F00FC
:1032100004B080BD80B588B0DDF828C00690059167
:103220008DF813200393FFE79DF8160001280CD1B9
:10323000FFE7069800684069BDF814100840401A7E
:10324000B0FA80F0400902900BE0069800688069AF
:10325000BDF814100840401AB0FA80F040090290FE
:10326000FFE702989DF8131088424FD1FFE70398BB
:103270000130002849D0FFE7FEF75EFC0A99401AAA
:103280000399884203D8FFE70398E8BBFFE79DF85E
:10329000160001280CD1FFE7069800684069BDF8C8
:1032A00014100840401AB0FA80F0400901900BE079
:1032B000069800688069BDF814100840401AB0FAFA
:1032C00080F040090190FFE701989DF813108842B3
:1032D00019D1FFE7069900200863069A202182F899
:1032E0003D10069981F83E000699086C40F02000D8
:1032F0000864FFE70699002081F83C00FFE7012001
:103300008DF81F0006E0FFE7FFE78DE700208DF84E
:103310001F00FFE79DF81F0008B080BD80B588B092
:103320000690059104920393FFE79DF8160001288B
:103330000CD1FFE7069800684069BDF814100840FA
:10334000401AB0FA80F0400902900BE0069800683D
:103350008069BDF814100840401AB0FA80F04009A6
:103360000290FFE7029800287AD1FFE706980068EC
:10337000406900F480610120B0EB912F24D1FFE778
:1033800006980168086840F40070086006980168B3
:103390006FF480604861069900200863069A202136
:1033A00082F83D10069981F83E000699086C40F0BD
:1033B00004000864FFE70699002081F83C00FFE75D
:1033C00001208DF81F004FE004980130002846D0FE
:1033D000FFE7FEF7B1FB0399401A0499884203D82E
:1033E000FFE70498D0BBFFE79DF8160001280CD139
:1033F000FFE7069800684069BDF814100840401ABD
:10340000B0FA80F0400901900BE0069800688069EE
:10341000BDF814100840401AB0FA80F0400901903D
:10342000FFE70198C8B9FFE7069900200863069AEC
:10343000202182F83D10069981F83E000699086C1B
:1034400040F020000864FFE70699002081F83C0066
:10345000FFE701208DF81F0006E0FFE7FFE764E7C4
:1034600000208DF81F00FFE79DF81F0008B080BD09
:1034700080B584B0029001910092FFE70298006845
:103480004069C1B20020B0EBD11F3DD1FFE70298E7
:10349000FFF79AFD20B1FFE701208DF80F0037E01C
:1034A0000198013078B3FFE7FEF746FB0099401A18
:1034B0000199884203D8FFE7019818BBFFE70298FB
:1034C00000684069C1B20020B0EBD11F19D1FFE7FD
:1034D000029900200863029A202182F83D10029987
:1034E00081F83E000299086C40F020000864FFE774
:1034F0000299002081F83C00FFE701208DF80F00C1
:1035000006E0FFE7FFE7B9E700208DF80F00FFE7CF
:103510009DF80F0004B080BD80B590B000200F90E2
:103520000E900D900C900B90FFE700200A9043F650
:103530003000C4F20200016841F00401016000683B
:1035400000F004000A900A98FFE7FFE700200990C6
:1035500043F63000C4F20200016841F080010160CE
:10356000006800F0800009900998FFE7FFE700205D
:10357000089043F63000C4F20200016841F00101F6
:103580000160006800F0010008900898FFE7FFE77D
:103590000020079043F63000C4F20200016841F0B9
:1035A00002010160006800F0020007900798FFE741
:1035B0000020C4F202000390202101910022059214
:1035C000FEF7A2FA05984FF400510B914FF4041145
:1035D00000910C910D9040F60000C4F202000BA97E
:1035E0000491FEF7C3F8009B03980499059A4FF0E5
:1035F000010CCDF808C0CDF82CC00C930D92FEF74D
:10360000B5F8DDF804C0029B03980499059ACDF83B
:103610002CC00C930D920E92FEF7A8F8059A062086
:1036200006901146FEF7CCFD0698FEF7BFFD10B0E0
:1036300080BD000080B582B040F27C40C2F2000044
:10364000019045F20041C4F20001016048F2A0611E
:10365000C0F20101416000218160C1604FF48042ED
:10366000026141618161C1610162FEF76BFA18B1CB
:10367000FFE7FDF7F5FFFFE702B080BD80B582B040
:1036800040F2D040C2F20000019044F20041C4F286
:10369000000101604FF4E131416000218160C160AF
:1036A00001610C2242618161C161FFF75BFB18B1CE
:1036B000FFE7FDF7D5FFFFE702B080BDFFE7FEE7BC
:1036C000FFE7FEE788B0079006910592079800F0A3
:1036D000070004900498C0F10700052803D3FFE712
:1036E0000420019004E00498C0F107000190FFE776
:1036F0000198039004980430062803D8FFE70020BF
:10370000009003E0049803380090FFE700980290CF
:1037100006980399012202FA01F101390840029B3F
:10372000984005999A40013A1140084308B0704703
:10373000704700007047000080B582B0009000988C
:103740000138B0F1807F03D3FFE70120019019E039
:10375000009801384EF21401CEF2000108604FF0DB
:10376000FF300F2100F0F4F94EF21801CEF2000103
:10377000002008604EF21002CEF200020721116014
:103780000190FFE7019802B080BD000080B5FEF710
:103790007FFC80BD80B594B007A83421FCF7A3FE60
:1037A000002006900590049003900290FFE700200F
:1037B000019043F64000C4F20200016841F08051DC
:1037C0000160006800F0805001900198FFE7FFE77A
:1037D0000020009047F20000C4F2000001680122BE
:1037E00062F38F310160006800F44040009000985F
:1037F000FFE70220079001210A9110210B910D9003
:1038000000220E920F914FF4A87110910421119192
:103810001290139007A8FEF709FF18B1FFE7FDF714
:103820001FFFFFE70F200290022103910020049068
:103830004FF480520592069002A8FEF7E3FC18B1FF
:10384000FFE7FDF70DFFFFE714B080BD4EF688518E
:10385000CEF20001086840F4700008607047000074
:1038600084B00390FFE7FFE70398006850E8030F78
:1038700020F490700290FFE702990398026842E8F2
:1038800003100028F0D1FFE7FFE7FFE7FFE7039809
:10389000006850E8050F20F001000190FFE7019952
:1038A0000398026842E805100028F0D1FFE7FFE71F
:1038B0000398006B012814D1FFE7FFE7FFE70398A7
:1038C000006850E8030F20F010000090FFE7009917
:1038D0000398026842E803100028F0D1FFE7FFE7F1
:1038E000FFE70399202081F8420003990020086334
:1038F00004B0704780B586B00590059800680069EF
:1039000020F44050059A1168D26810430861059967
:1039100088680B694A69C9691843104308430490D1
:1039200005980068C06849F20C618843049908430F
:1039300005990968C86005980068406920F44070DE
:10394000059A11689269104348610598006841F230
:103950000001C4F20101884209D0FFE70598006820
:1039600041F20041C4F20101884204D1FFE7FEF7B1
:1039700093FD039003E0FEF77DFD0390FFE70598BC
:10398000C069B0F5004F29D1FFE703981921A0FBCA
:103990000101059A1368029353685A00DB0FFCF784
:1039A000EDFC0299864648F21F53C5F2EB13AEFBBD
:1039B0000320420910014FF0640C02FB1CEC322280
:1039C00002EBCC02A2FB0332F82303EA521300EB12
:1039D0004300C2F342121044886026E00398192184
:1039E000A0FB0101059A1368019353689A009B0F8D
:1039F000FCF7C4FC0199844648F21F52C5F2EB1251
:103A0000ACFB02304309642003FB10CC322000EBF6
:103A10000C10A0FB0202F02000EA521000EB031091
:103A2000C2F3431210448860FFE706B080BD000077
:103A300080B586B0DDF820C0049003918DF80B208E
:103A40000193FFE704980068006803990840401A52
:103A5000B0FA80F040099DF80B1088424DD1FFE785
:103A600008980130002847D0FFE7FEF765F8019974
:103A7000401A0899884203D8FFE7089820B9FFE761
:103A800003208DF817003CE004980068C0684007E8
:103A9000002830D5FFE7039880282CD0FFE7039853
:103AA000402828D0FFE704980068006800F008016B
:103AB0000120B0EBD10F1DD1FFE7FFE70020009000
:103AC00004980068006800900498006840680090BE
:103AD0000098FFE70498FFF7C3FE049908204864A4
:103AE000FFE70499002081F84000FFE701208DF8EE
:103AF000170006E0FFE7FFE7A4E700208DF81700B6
:103B0000FFE79DF8170006B080BD0000FFE7FEE765
:103B100081B08DF803009DF9030000280ED4FFE763
:103B20009DF9031001F01F02012090404A094EF256
:103B30000011CEF2000141F82200FFE701B070470A
:103B40004EF60C50CEF200000068C0F30220704721
:103B500082B08DF8070000919DF9070000280AD473
:103B6000FFE7009800019DF907104EF20042CEF2E7
:103B7000000288540BE0009800019DF8071001F046
:103B80000F014EF61452CEF200028854FFE702B045
:103B90007047000083B00290029800F00700009088
:103BA0004EF60C51CEF200010868019001984FF6D4
:103BB000FF02104001900198009A40EA0220002282
:103BC000C0F2FA52104301900198086003B07047A8
:103BD00080B5B8B000200A903790FEF767FAFFF77B
:103BE000D9FDFFF799FCFFF725FDFFF747FD00F032
:103BF000D1F90A9800F0BAF90A99084600F048FA93
:103C000046F29C20C0F60000016842688368EC46DA
:103C10000120CCF8000046F2EB20C0F6000000F0D6
:103C200077FB00F069FAFDF787FF40F22051C2F2FE
:103C300000010860FDF780FF40F23051C2F2000140
:103C40000860FDF779FF40F27841C2F20001086098
:103C5000FFE7FDF771FF369040F21C50C2F2000002
:103C6000007828B3FFE740F21C51C2F200010020A7
:103C7000087040F22850C2F2000090ED000AB8EE41
:103C8000400A9FED941A80EE010A8DED350A9DEDF4
:103C9000351A9FED910A80EE010A9FED901A20EEF1
:103CA000010A40F22C50C2F2000080ED000AFFE74A
:103CB00040F21850C2F200000068002853D0FFE71D
:103CC00040F22850C2F20000006800284BD0FFE705
:103CD000369840F21851C2F200010968401A349037
:103CE000349845F6C641884207D3FFE740F22C518D
:103CF000C2F200010020086034E0349840F22851FC
:103D0000C2F20001096888422BD9FFE7369840F2D9
:103D10007841C2F200010968401AC72821D3FFE7A1
:103D2000369840F27841C2F2000108609DED340AF5
:103D3000B8EE400A9FED671A80EE010A8DED330A56
:103D40009DED331A9FED640A80EE010A9FED631A20
:103D500020EE010A40F22C50C2F2000080ED000A71
:103D6000FFE7FFE7FFE7369840F22051C2F200017B
:103D70000968401AB0F57A7F6ED3FFE7369840F2B3
:103D80002051C2F20001086046F2DA21C0F60001BB
:103D90002BA80490FCF76AFB40F22C50C2F2000002
:103DA000006800F005FF41EC100B53EC102B46F2BD
:103DB000E121C0F6000123A80590FCF757FB40F273
:103DC0002450C2F20000026846F2F821C0F6000159
:103DD0001BA80990FCF74AFB0020069000F0C6F8EB
:103DE0000699084600F054F9049846F29C23C0F660
:103DF0000003079319685A689B68EE464FF0010C60
:103E0000CDF820C0CEF800C000F082FA069810214C
:103E100000F03EF90598DDF820C046F29023C0F688
:103E2000000319685A689B68EE46CEF800C000F09F
:103E30006FFA0698282100F02BF9079BDDF820C0C7
:103E4000099819685A689B68EE46CEF800C000F0E1
:103E50005FFA00F051F9FFE7369840F23051C2F2B4
:103E600000010968401AC82833D3FFE7369840F2AA
:103E70003051C2F20001086040F22C50C2F2000042
:103E8000006800F095FE41EC100B40F22850C2F2A1
:103E90000000006840F22451C2F200010A6869463D
:103EA0004A60086053EC102B46F2A821C0F60001CE
:103EB0000BA80390FCF7DAFA0398FCF7EDFA0399E4
:103EC00082B240F2D040C2F200006423FEF7E2FF6B
:103ED000FFE7BEE600007A44D00FC9406666664040
:103EE00081B08DF803008DF802108DF801209DF847
:103EF00003007F2805DCFFE79DF80200402801DB76
:103F0000FFE730E09DF80100012816D1FFE79DF89A
:103F1000022002F00701012000FA01F39DF80300DE
:103F20006FF0700101EA0211421840F27601C2F20C
:103F30000001885C1843885415E09DF8022002F0C7
:103F40000701012000FA01F39DF803006FF07001F2
:103F500001EA0211421840F27601C2F20001885CC7
:103F600098438854FFE701B07047000080B582B0E5
:103F70008DF807009DF80720002A18BFFF2240F2A5
:103F80007600C2F200004FF48061FCF7A4FA02B0A0
:103F900080BD000080B584B000F068F86420FDF7B3
:103FA00063FB0020029000F085F82020019000F0D3
:103FB0007FF9029800F07CF9B02000F079F9C82070
:103FC00000F076F9029800F073F9102000F070F913
:103FD000402000F06DF9FF2000F04AF8A12000F029
:103FE00067F9A62000F064F9A82000F061F93F20ED
:103FF00000F05EF9A42000F05BF9D32000F058F93E
:10400000029800F055F9D52000F052F9F02000F0A8
:104010004FF9D92000F04CF9222000F049F9DA20BC
:1040200000F046F9122000F043F9DB2000F040F9DF
:10403000019800F03DF98D2000F03AF9142000F0CD
:1040400037F90120039000F035F80298FFF78EFF52
:1040500000F052F8029A039840F27001C2F2000197
:104060000A804A80087104B080BD000070470000DB
:1040700080B582B08DF8070081208DF8060000F031
:1040800017F99DF8070000F013F902B080BD000099
:1040900081B08DF803008DF802109DF8030040F206
:1040A0007001C2F2000108809DF80200488001B052
:1040B0007047000080B582B08DF807009DF80700BA
:1040C00050B1FFE7AF208DF8060040F27001C2F258
:1040D00000010120487109E0AE208DF8060040F291
:1040E0007001C2F2000100204871FFE79DF8060050
:1040F00000F0DEF802B080BD80B582B000208DF8FF
:104100000700FFE79DF8070007281EDCFFE79DF882
:104110000700B030C0B200F0CBF8002000F0C8F8C3
:10412000102000F0C5F89DF8071040F27600C2F2AA
:10413000000000EBC110802100F0D2F8FFE79DF8ED
:10414000070001308DF80700DCE702B080BD0000F9
:1041500080B58AB09C4613460A4601460C98CDF8B5
:1041600020C0079306928DF817108DF816009DF861
:104170001700202805DBFFE79DF817007F2804DBE8
:10418000FFE700208DF827008DE0089840B1FFE799
:1041900008999DF81700084410F8200C009003E0DF
:1041A0009DF818000090FFE700988DF8070040F296
:1041B0007000C2F2000000889DF8071008448028B3
:1041C0000BDCFFE740F27000C2F2000040889DF86F
:1041D00019100844412804DBFFE700208DF8270070
:1041E00061E000200490FFE704989DF819108842D0
:1041F0004BD2FFE707989DF8171020399DF819203A
:10420000049B11FB023130F8110003900020029052
:10421000FFE702989DF80710884231D2FFE7039824
:10422000029988400004002811D5FFE740F2700190
:10423000C2F200010888029A10444988049A114485
:104240009DF81620C0B2C9B2FFF74AFE13E040F253
:104250007001C2F200010888029A10444988049A49
:1042600011449DF81620B2FA82F25209C0B2C9B2C6
:10427000FFF736FEFFE7FFE7029801300290C8E73C
:10428000FFE7049801300490AEE79DF8072040F264
:104290007001C2F200010888104408809DF81700E0
:1042A0008DF82700FFE79DF827000AB080BD0000C9
:1042B00080B584B08DF80F0069464FF0FF308860FC
:1042C00001234B600DF10F00086040F27C40C2F208
:1042D000000078210022FDF787FD04B080BD0000BA
:1042E00080B586B0059004910598BDF81020694608
:1042F0004FF0FF338B604A60086040F27C40C2F2AE
:104300000000782140220123FDF76EFD06B080BD3C
:1043100080B588B09C4613460A4601460A98CDF8F7
:1043200018C00593049203918DF80B00FFE70398E2
:104330000078D0B1FFE7039800789DF80BC004998E
:10434000059A069BEE46CEF800C0FFF701FF0399E1
:104350000978884205D0FFE7039800788DF81F00A0
:1043600008E0039801300390E1E7039800788DF8A6
:104370001F00FFE79DF81F0008B080BD5FEA400CFA
:1043800008BF91F0000F4FEA8C234FEAC12243EAA5
:1043900051514FEA1C5018BF00F5F0404FEA300071
:1043A00018BF41F000415FEA6C5C00F02980BCF16D
:1043B000FF3F08BF40F080407047130C06BF120457
:1043C0004FF0100C4FF0000C130E04BF12020CF152
:1043D000080C130F04BF12010CF1040C930F04BF5F
:1043E00092000CF1020CD30F04BF52000CF1010C2F
:1043F00011464FF00002A0F11F00A0EB0C00704727
:1044000011F0004F08BF704731F000413FF4D5AFC5
:104410000B0C06BF09044FF0100C4FF0000C0B0EF4
:1044200004BF09020CF1080C0B0F04BF09010CF1C9
:10443000040C8B0F04BF89000CF1020CCB0F04BFDE
:1044400049000CF1010CCCF1200322FA03F341EAFC
:10445000030102FA0CF2A0EB0C0000F1010070471E
:1044600023F07F4720F07F4C80EA030000F00040FB
:10447000ACEB070303F57C5303F1FF032DE98049FF
:1044800009B44FEA144324EA03484FEA154B25EADE
:104490000B4E0FF2042606EB13273E7803FB06674C
:1044A000C7F5000707FB06F64FEAD64606F10206F7
:1044B0004FEA543707FB066CCCF1005C4FEA1C470F
:1044C0002CEA074C0CFB06F507FB06F404EB15463B
:1044D0004FEA961649085FEA320234BF00204FF0D7
:1044E00000404FEAD13706FB07FC4FEA1C4C0CFB9F
:1044F0000BF7D21B03FB0CF761EB07010CFB0EF76C
:10450000B0EB074072EB17420CFB08F734BFA2EB8D
:104510000742B2EB074261EB17414FEA0C444FEA06
:10452000910706FB07FC4FEA1C4C0CFB0BF7B0EBAA
:10453000C74072EB573203FB0CF734BFA2EBC74204
:10454000B2EBC74261EB57310CFB0EF7B0EBC70083
:1045500072EB57720CFB08F734BFA2EBC702B2EB49
:10456000C70261EB57714FEA816141EA92114FEA4C
:10457000826242EA90124FEA806004EBCC04039F0F
:104580004FEAD13706FB07FC4FEA1C4C0CFB0BF73C
:10459000D21B03FB0CF761EB07010CFB0EF7B0EB32
:1045A000074072EB17420CFB08F734BFA2EB07423F
:1045B000B2EB074261EB17414FEA8C5504EB9C24A8
:1045C0004FEA910706FB07FC4FEA1C4C0CFB0BF76C
:1045D000B0EBC74072EB573203FB0CF734BFA2EBD2
:1045E000C742B2EBC74261EB57310CFB0EF7B0EBA1
:1045F000C70072EB57720CFB08F734BFA2EBC7027F
:10460000B2EBC70261EB57714FEA816141EA921147
:104610004FEA826242EA90124FEA806015EB4C2525
:1046200044F100044FEAD13706FB07FC4FEA1C4C6B
:104630000CFB0BF7D21B03FB0CF761EB07010CFB28
:104640000EF7B0EB074072EB17420CFB08F734BFD4
:10465000A2EB0742B2EB074261EB17414FEA81310F
:1046600041EA92414FEA823242EA90424FEA803078
:104670004FEA0C7615EB1C1544F1000448EA03439D
:104680004EEA0B484FF0000EB2EB080C71EB03073B
:1046900024BF624639464EEB0E0E4FF0000B001859
:1046A000524149414BEB0B0BB2EB080C71EB03078A
:1046B0007BF1000B24BF624639464EEB0E0E4FF0E5
:1046C000000B0018524149414BEB0B0BB2EB080CAD
:1046D00071EB03077BF1000B24BF624639464EEBBA
:1046E0000E0E51EA020718BF46F0010616EB0E76D1
:1046F00055F1000254F1000103D5BDE88901BDE880
:104700000088BDE88901BDE80048B619524141EB77
:104710000101A3F10103704780807F7E7D7C7B7A5D
:104720007978777676757473727171706F6E6E6D5D
:104730006C6C6B6A6A696868676666656464636303
:1047400062616160605F5F5E5E5D5D5C5C5B5B5A89
:104750005A595958585757565655555554545353F6
:1047600052525251515050504F4F4F4E4E4D4D4D51
:104770004C4C4C4B4B4B4A4A4A494949484848479C
:1047800047474746464645454544444444434343DA
:1047900043424242424141419C46002B30D4770083
:1047A0002BD04FEA37071CB503B44FF010004FF081
:1047B0001001BAF1000F06D0BCF1000FDCBF40F0D1
:1047C000080040F008014FF000000FBCBDE81040A9
:1047D0000BF1010BBBF1010F08BF5FEA170722BF06
:1047E00012F1010211F101014FF0004143F1000308
:1047F00000F0004043EA00007047F9D35708D0E7C3
:1048000046EA06464FEA164613F1400F1FDD13F144
:10481000200FDFBF16430A46002120335B42BED083
:10482000C3F1200746EA06464FEA164602FA07F7A2
:1048300046EA070622FA03F2C3F1200701FA07F756
:1048400042EA070221FA03F14FF00003A7E746EA24
:10485000020646EA06464FEA164646EA0106BCBF8D
:1048600046EA0646360C4FF000034FF000024FF0C8
:10487000000194E72DE9804C70B49A46934691E884
:10488000380007C831EA400C48BF34EA430C03D56E
:10489000FFF7E6FDFFF780FFF0BCBDE8008C2DE9D7
:1048A000804C70B49A46934691E8380007C810F0DF
:1048B000804F08BF13F0804F03D100F005F8FFF7D9
:1048C0006BFFF0BCBDE8008C20F07F4723F07F4CED
:1048D00080EA030000F0004007EB0C03A3F57C53D3
:1048E000A3F1FE0392F0000F00F0B38095F0000FEB
:1048F00000F077802DE901494FEA114021EA004894
:104900004FEA144624EA064700FB06FC08FB06F6BD
:1049100007FB08F818EB06484CEB164C00FB07F7B2
:1049200018EB07484CEB17404FEA124B22EA0B4EAC
:104930004FEA154625EA06470BFB06FC0EFB06F67A
:1049400007FB0EFE1EEB064E4CEB164C0BFB07F75F
:104950001EEB074E4CEB174B18EB0B0840F1000019
:1049600018EB0E0B58EB000840F100008F1A4FF0C7
:1049700000014FF000063CBFC943661B14BFB5EBF6
:10498000040C00213CBFC943F61B4FEA174427EA39
:1049900004454FEA1C472CEA074C04FB076205FB61
:1049A00007F70CFB05F616EB074642EB174204FB34
:1049B0000CFC16EB0C4642EB1C421BEB060658EBBC
:1049C000020241414EEA8E0E46EA9E0601D5BDE83E
:1049D0000189B619524141EB0101A3F10103BDE880
:1049E00001894FEA144524EA05464FEA114721EAB6
:1049F000074C05FB07F406FB07F70CFB06F111EB70
:104A0000074144EB174405FB0CFC11EB0C4144EB54
:104A10001C444FEA124722EA074C05FB07F206FB4B
:104A200007F70CFB06F616EB074642EB174205FBB1
:104A30000CFC16EB0C4642EB1C456A1854F10001C5
:104A400048BF7047B619524141EB0101A3F1010380
:104A5000704795F0000F37D04FEA114221EA024625
:104A60004FEA144724EA074C02FB07F106FB07F75D
:104A70000CFB06F414EB074441EB174102FB0CFC62
:104A800014EB0C4441EB1C414FEA154725EA074C57
:104A900002FB07F506FB07F70CFB06F616EB0746CD
:104AA00045EB174502FB0CFC16EB0C4645EB1C4294
:104AB000121951F1000148BF7047B619524141EB3C
:104AC0000101A3F1010370474FEA144524EA0546AA
:104AD0004FEA114721EA074C05FB07F106FB07F7F0
:104AE0000CFB06F212EB074241EB174105FB0CFCF5
:104AF00012EB0C4251EB1C414FF0000648BF7047CF
:104B0000921841EB0101A3F10103704703B401982E
:104B10004100009850EAC12018BF04204A0D18BF78
:104B200040F0010040F2FF72B2EB515F08BF40F06D
:104B30000200012808BF052002B0704730380A285B
:104B400001D20120704700207047000010B50029F5
:104B50000AD00878002807D005487844FCF730FDD3
:104B6000002801D0002010BD0248784410BD00008C
:104B7000CA170000C217000010B500290AD0087833
:104B8000002807D005487844FCF71AFD002801D01A
:104B9000002010BD0248784410BD0000BA17000084
:104BA000B21700000808A0F500114FEA3101704764
:104BB00043004FEAD30C4FEA3C0C43401FBF400771
:104BC0000CF1605113F0FE4F70471CF0006F03D1E1
:104BD0000CF00041002070470CF0004343EA507095
:104BE00040EACC0010B500F00EF800BF00000092C3
:104BF0004FEA0001FFF7D6BF4FF00041A1F50021B9
:104C00004FF0000070470EF1020E2EF0030E5EF81A
:104C1000044B244204D44FEA4102B2F17F4F11D831
:104C20004FEA4003B3F17F4F0CD80ED14FEAD07C4E
:104C30000CEB4C0C0CF1020CB2F17F4F08BF4CEBAB
:104C4000D17C04E04FF0080C01E04FEAD17C0CEB82
:104C50004C0324FA03F404F00704B4F1040C06D264
:104C60000EEB840CBDE810404CF0010C6047DFE80F
:104C70000CF0070802024FF00040A0F5800010BDC4
:104C80000846420018BFD2F1807288BF00F0004091
:104C900010BDF1EE100A4FF6FF71C0F2C03120EAEC
:104CA000010040F04070E1EE100A7047FCF790B848
:104CB000FCF7C4B9000000000000000030313233BE
:104CC0003435363738394142434445464030580040
:104CD0003031323334353637383961626364656672
:104CE00040307800040000080000000000000002CE
:104CF0000001000010303132333435363738396135
:104D0000626364656678700030313233343536372B
:104D100038394142434445465850000002400000A3
:104D2000000000A00000000005400000000000C8D6
:104D3000000000000C4000000000409C000000004B
:104D4000194000000020BCBE0000000034400000FC
:104D5000BFC91B8E00000004B5400000504BCFD0EF
:104D60006607E2CF010000006C4100003E8251AABC
:104D7000DFEEA73401000000D9420000DCB5A0E25C
:104D80003A301F97FFFFFFFFB4450000FD25A0C884
:104D9000E9A3C14FFFFFFFFFFF3F000000000080BD
:104DA00000000000FF3F0000000000800000000045
:104DB00000000000000000000102030406070809CB
:104DC00000000000010203040000000000000000D9
:104DD00000000000000000000000000000000000D3
:104DE0000000000000000000000000000000000CB7
:104DF000000C000C000C000C000C000C000C000C53
:104E0000000C000C0000000C000C00000000000072
:104E10000000001B001B001B001B001B000000000B
:104E20000000000000000000000000000000000082
:104E30000000000000008019801980198019C07FCF
:104E4000C07F80190033C07FC07F00330033003340
:104E500000330000000000000000001E003F8075CD
:104E600080650074003C001E000780058065806539
:104E70008075003F001E0004000400000000007068
:104E800000D840D8C0D880D900730006000C801B21
:104E9000C036C066C046C0068003000000000000A7
:104EA0000000001E003F003300330033001E000CE2
:104EB000C03CC066806380618063C03E801C00008F
:104EC000000000000000000C000C000C000C000CA6
:104ED00000000000000000000000000000000000D2
:104EE0000000000000000000800000010003000638
:104EF00000060004000C000C000C000C000C000C60
:104F000000040006000600030001800000200010DD
:104F10000018000C000C0004000600060006000645
:104F2000000600060004000C000C00180010002011
:104F30000000000C002D003F001E003300000000A8
:104F40000000000000000000000000000000000061
:104F500000000000000000000000000C000C000C2D
:104F6000000CC0FFC0FF000C000C000C000C000087
:104F70000000000000000000000000000000000031
:104F80000000000000000000000000000000000021
:104F90000000000C000C00040004000800000000E9
:104FA0000000000000000000000000000000001EE3
:104FB000001E0000000000000000000000000000D3
:104FC00000000000000000000000000000000000E1
:104FD00000000000000000000000000C000C0000B9
:104FE00000000000000000030003000300060006AC
:104FF00000060006000C000C000C000C0018001845
:1050000000180000000000000000001E003F0033F8
:10501000806180618061806D806D80618061806170
:105020000033003F001E00000000000000000006EA
:10503000000E001E003600260006000600060006D0
:105040000006000600060006000600000000000042
:105050000000001E003F80738061806180010003BA
:105060000006000C001800300060807F807F000088
:10507000000000000000001C003E0063006300030D
:10508000000E000E00038001800180618073003FEC
:10509000001E00000000000000000006000E000ED0
:1050A000001E001E0016003600360066807F807FDE
:1050B0000006000600060000000000000000007F5F
:1050C000007F006000600060006E007F80638001F0
:1050D000800180618073003F001E0000000000001E
:1050E0000000001E003F803380610060006E007F82
:1050F00080738061806180618033003F001E00000A
:10510000000000000000807F807F8001000300031A
:1051100000060006000C000C000C00080018001827
:1051200000180000000000000000001E003F806327
:10513000806180610021001E003F8061806180618C
:105140008061003F001E0000000000000000001E03
:10515000003F00738061806180618073803F801DAB
:10516000800180610073003F001E0000000000000D
:1051700000000000000000000000000C000C000017
:1051800000000000000000000000000C000C000007
:10519000000000000000000000000000000000000F
:1051A000000C000C00000000000000000000000CDB
:1051B000000C0004000400080000000000000000D3
:1051C00080008003000E003800600038000E80036D
:1051D000800000000000000000000000000000004F
:1051E000000000000000807F807F00000000807FC2
:1051F000807F0000000000000000000000000000B0
:10520000000000000000000000400070001C0007CB
:1052100080010007001C007000400000000000003A
:10522000000000000000001F803FC071C060C0008F
:10523000C00180030007000E000C000C0000000CF1
:10524000000C0000000000000000001E003F803144
:1052500080718063806F806D806D806F806700607B
:105260000032003E001C0000000000000000000EA4
:10527000000E001B001B001B001B80318031803F93
:10528000803F8031C060C060C0600000000000004E
:105290000000007C007E0063006300630063007E0A
:1052A000007E0063806180618063007F007E00007B
:1052B000000000000000001E003F8031806100609F
:1052C0000060006000600060006080618031003F2D
:1052D000001E0000000000000000007C007F006352
:1052E0008063806180618061806180618061006332
:1052F0000063007E007C0000000000000000807F52
:10530000807F0060006000600060007F007F0060C0
:10531000006000600060807F807F0000000000006F
:105320000000807F807F0060006000600060007F80
:10533000007F0060006000600060006000600000AE
:10534000000000000000001E003F8031806100600E
:105350000060006080638063806180618031803F95
:10536000001E00000000000000008061806180617C
:10537000806180618061807F807F806180618061E9
:105380008061806180610000000000000000003F3B
:10539000003F000C000C000C000C000C000C000C7A
:1053A000000C000C000C003F003F0000000000005B
:1053B0000000800180018001800180018001800166
:1053C00080018001806180618073003F001E0000C9
:1053D000000000000000C06080610063006600669D
:1053E000006C0078007C006600660063806180616C
:1053F000C06000000000000000000060006000606D
:10540000006000600060006000600060006000609C
:105410000060807F807F0000000000000000C071FD
:10542000C071C07BC07AC06AC06AC06EC064C06010
:10543000C060C060C060C060C060000000000000CC
:10544000000080718071807980798079806D806DB5
:10545000806D8065806780678067806380630000FF
:10546000000000000000001E003F003380618061EA
:105470008061806180618061806180610033003F74
:10548000001E0000000000000000007E007F80631E
:105490008061806180618063007F007E00600060C9
:1054A0000060006000600000000000000000001EBE
:1054B000003F003380618061806180618061806134
:1054C000806580670033803F401E000000000000C0
:1054D0000000007E007F8063806180618063007FC8
:1054E000007E00660063006380618061C060000030
:1054F000000000000000000E001F803180310030ED
:105500000038001E00078003806180618031003F09
:10551000001E0000000000000000C0FFC0FF000CE3
:10552000000C000C000C000C000C000C000C000C1B
:10553000000C000C000C0000000000000000806166
:105540008061806180618061806180618061806153
:10555000806180618073003F001E00000000000039
:105560000000C060C060C060803180318031001BAD
:10557000001B001B001B000E000E000E00040000AC
:10558000000000000000C0C0C0C0C0C0C0C0C0C09B
:10559000C0CC804C804C805E805280528073806191
:1055A00080610000000000000000C0C080608061D9
:1055B0000033003B001E000C000C001E001F003BCF
:1055C00080718061C0C00000000000000000C0C009
:1055D0008061806100330033001E001E000C000C4F
:1055E000000C000C000C000C000C0000000000007F
:1055F0000000803F803F8001000300030006000C94
:10560000000C0018001800300060807F807F0000D0
:1056100000000000000F000F000C000C000C000C3C
:10562000000C000C000C000C000C000C000C000C1A
:10563000000C000C000F000F0000001800180018EC
:10564000000C000C000C000C000600060006000612
:10565000000300030003000000000000001E001E05
:10566000000600060006000600060006000600060A
:10567000000600060006000600060006001E001ECA
:105680000000000C000C001E00120033003380618B
:105690008061000000000000000000000000000029
:1056A00000000000000000000000000000000000FA
:1056B00000000000000000000000000000000000EA
:1056C00000000000E0FF0000000000380018000C9F
:1056D00000000000000000000000000000000000CA
:1056E00000000000000000000000000000000000BA
:1056F000000000000000001F803F80618001801FCB
:10570000803F80618063807FC0380000000000001F
:1057100000000060006000600060006E007F807329
:1057200080618061806180618073007F006E000015
:105730000000000000000000000000000000001E4B
:10574000003F807380610060006080618073003F73
:10575000001E0000000000000000800180018001A8
:105760008001801D803F80738061806180618061E5
:105770008073803F801D00000000000000000000DA
:10578000000000000000001E003F00738061807F69
:10579000807F00608071003F001E0000000000005C
:1057A0000000C007C00F000C000C807F807F000C41
:1057B000000C000C000C000C000C000C000C000095
:1057C000000000000000000000000000801D803F7D
:1057D000807380618061806180618073803F801D03
:1057E00080018063007F003E000000600060006078
:1057F0000060006F807F8071806180618061806166
:1058000080618061806100000000000000000006EF
:10581000000600000000003E003E000600060006F4
:10582000000600060006000600060000000000005A
:105830000006000600000000003E003E00060006D4
:1058400000060006000600060006000600060046E8
:10585000007E003C0000006000600060006080612D
:1058600000630066006C007C00760063006380616A
:10587000C0600000000000000000003E003E000686
:1058800000060006000600060006000600060006E8
:1058900000060006000600000000000000000000F6
:1058A00000000000000080DDC0FFC0CEC0CCC0CC36
:1058B000C0CCC0CCC0CCC0CCC0CC0000000000002C
:1058C00000000000000000000000006F807F807179
:1058D00080618061806180618061806180610000A1
:1058E0000000000000000000000000000000001E9A
:1058F000003F807380618061806180618073003FC0
:10590000001E000000000000000000000000000079
:10591000006E007F80738061806180618061807330
:10592000007F006E0060006000600060000000000A
:1059300000000000801D803F807380618061806175
:1059400080618073803F801D800180018001800123
:10595000000000000000000000000067803F0039E8
:1059600000300030003000300030003000300000E7
:105970000000000000000000000000000000001E09
:10598000803F80610060007F803F80018061007FF8
:10599000001E0000000000000000000000080018C9
:1059A0000018007F007F0018001800180018001869
:1059B0000018801F800F00000000000000000000A1
:1059C0000000000000008061806180618061806172
:1059D000806180618063807F803D00000000000066
:1059E00000000000000000000000C0608031803135
:1059F0008031001B001B001B000E000E0006000083
:105A0000000000000000000000000000000080DD39
:105A100080DD80DD005500550055007700770022BD
:105A20000022000000000000000000000000000054
:105A30000000806100330033001E000C000C001ECB
:105A4000003300338061000000000000000000000F
:105A50000000000080618061803100330033001B52
:105A6000001B001B000E000E000E001C007C0070CE
:105A700000000000000000000000C07FC07F800127
:105A800000030006000C00180030C07FC07F00003B
:105A900000000000800380070006000600060006E4
:105AA0000006000E001C001C000E0006000600068A
:105AB00000060006800780030006000600060006B8
:105AC00000060006000600060006000600060006A6
:105AD0000006000600060006000600060038003C2E
